{
  "_format": "hh-sol-artifact-1",
  "contractName": "Donation",
  "sourceName": "contracts/Donation.sol",
  "abi": [
    {
      "inputs": [],
      "name": "count",
      "outputs": [
        {
          "internalType": "int256",
          "name": "",
          "type": "int256"
        }
      ],
      "stateMutability": "view",
      "type": "function"
    },
    {
      "inputs": [
        {
          "internalType": "int256",
          "name": "_campaign",
          "type": "int256"
        }
      ],
      "name": "donate",
      "outputs": [],
      "stateMutability": "payable",
      "type": "function"
    },
    {
      "inputs": [
        {
          "internalType": "int256",
          "name": "_campaign",
          "type": "int256"
        }
      ],
      "name": "donationSum",
      "outputs": [
        {
          "internalType": "uint256",
          "name": "",
          "type": "uint256"
        }
      ],
      "stateMutability": "view",
      "type": "function"
    },
    {
      "inputs": [],
      "name": "startCampaign",
      "outputs": [
        {
          "internalType": "int256",
          "name": "",
          "type": "int256"
        }
      ],
      "stateMutability": "nonpayable",
      "type": "function"
    },
    {
      "inputs": [
        {
          "internalType": "int256",
          "name": "_campaign",
          "type": "int256"
        }
      ],
      "name": "withdraw",
      "outputs": [
        {
          "internalType": "uint256",
          "name": "",
          "type": "uint256"
        }
      ],
      "stateMutability": "nonpayable",
      "type": "function"
    },
    {
      "stateMutability": "payable",
      "type": "receive"
    }
  ],
  "bytecode": "0x60806040526000805534801561001457600080fd5b50610692806100246000396000f3fe60806040526004361061004e5760003560e01c806306661abd1461005a57806356dd6f52146100855780637e62eab8146100a1578063a8b78ed0146100de578063aa4bb1ff1461010957610055565b3661005557005b600080fd5b34801561006657600080fd5b5061006f610146565b60405161007c919061041f565b60405180910390f35b61009f600480360381019061009a919061046b565b61014c565b005b3480156100ad57600080fd5b506100c860048036038101906100c3919061046b565b610270565b6040516100d591906104b1565b60405180910390f35b3480156100ea57600080fd5b506100f3610373565b604051610100919061041f565b60405180910390f35b34801561011557600080fd5b50610130600480360381019061012b919061046b565b6103e9565b60405161013d91906104b1565b60405180910390f35b60005481565b600073ffffffffffffffffffffffffffffffffffffffff166001600083815260200190815260200160002060009054906101000a900473ffffffffffffffffffffffffffffffffffffffff1673ffffffffffffffffffffffffffffffffffffffff16036101ee576040517f08c379a00000000000000000000000000000000000000000000000000000000081526004016101e590610529565b60405180910390fd5b346002600083815260200190815260200160002060003373ffffffffffffffffffffffffffffffffffffffff1673ffffffffffffffffffffffffffffffffffffffff16815260200190815260200160002081905550346003600083815260200190815260200160002060008282546102669190610578565b9250508190555050565b60003373ffffffffffffffffffffffffffffffffffffffff166001600084815260200190815260200160002060009054906101000a900473ffffffffffffffffffffffffffffffffffffffff1673ffffffffffffffffffffffffffffffffffffffff1614610313576040517f08c379a000000000000000000000000000000000000000000000000000000000815260040161030a906105f8565b60405180910390fd5b3373ffffffffffffffffffffffffffffffffffffffff166003600084815260200190815260200160002050506000600360008481526020019081526020016000208190555060036000838152602001908152602001600020549050919050565b600060016000808282546103879190610618565b9250508190555033600160008054815260200190815260200160002060006101000a81548173ffffffffffffffffffffffffffffffffffffffff021916908373ffffffffffffffffffffffffffffffffffffffff160217905550600054905090565b600060036000838152602001908152602001600020549050919050565b6000819050919050565b61041981610406565b82525050565b60006020820190506104346000830184610410565b92915050565b600080fd5b61044881610406565b811461045357600080fd5b50565b6000813590506104658161043f565b92915050565b6000602082840312156104815761048061043a565b5b600061048f84828501610456565b91505092915050565b6000819050919050565b6104ab81610498565b82525050565b60006020820190506104c660008301846104a2565b92915050565b600082825260208201905092915050565b7f6e6f2063616d706169676e000000000000000000000000000000000000000000600082015250565b6000610513600b836104cc565b915061051e826104dd565b602082019050919050565b6000602082019050818103600083015261054281610506565b9050919050565b7f4e487b7100000000000000000000000000000000000000000000000000000000600052601160045260246000fd5b600061058382610498565b915061058e83610498565b92508282019050808211156105a6576105a5610549565b5b92915050565b7f6e6f7420746865206f776e657200000000000000000000000000000000000000600082015250565b60006105e2600d836104cc565b91506105ed826105ac565b602082019050919050565b60006020820190508181036000830152610611816105d5565b9050919050565b600061062382610406565b915061062e83610406565b92508282019050828112156000831216838212600084121516171561065657610655610549565b5b9291505056fea26469706673582212201cf2c46fc5e17dee6de53666fb827f49d431b971ed6dc18a82d223c2e1cdc38064736f6c63430008110033",
  "linkReferences": {},
  "deployedLinkReferences": {}
}